{
  "_format": "hh-sol-artifact-1",
  "contractName": "Detasker",
  "sourceName": "contracts/Detasker.sol",
  "abi": [
    {
      "inputs": [
        {
          "internalType": "address",
          "name": "_owner",
          "type": "address"
        }
      ],
      "stateMutability": "nonpayable",
      "type": "constructor"
    },
    {
      "anonymous": false,
      "inputs": [
        {
          "indexed": true,
          "internalType": "address",
          "name": "owner",
          "type": "address"
        },
        {
          "indexed": true,
          "internalType": "address",
          "name": "spender",
          "type": "address"
        },
        {
          "indexed": false,
          "internalType": "uint256",
          "name": "value",
          "type": "uint256"
        }
      ],
      "name": "Approval",
      "type": "event"
    },
    {
      "anonymous": false,
      "inputs": [
        {
          "indexed": false,
          "internalType": "address",
          "name": "whoItFor",
          "type": "address"
        },
        {
          "indexed": false,
          "internalType": "address",
          "name": "whoCompletedIt",
          "type": "address"
        },
        {
          "indexed": false,
          "internalType": "uint256",
          "name": "forAmount",
          "type": "uint256"
        },
        {
          "indexed": false,
          "internalType": "bool",
          "name": "waitForConformation",
          "type": "bool"
        }
      ],
      "name": "CompletingJob",
      "type": "event"
    },
    {
      "anonymous": false,
      "inputs": [
        {
          "indexed": false,
          "internalType": "uint256",
          "name": "amount",
          "type": "uint256"
        },
        {
          "indexed": false,
          "internalType": "uint256",
          "name": "timestamp",
          "type": "uint256"
        }
      ],
      "name": "PaidForAJob",
      "type": "event"
    },
    {
      "anonymous": false,
      "inputs": [
        {
          "indexed": true,
          "internalType": "address",
          "name": "from",
          "type": "address"
        },
        {
          "indexed": true,
          "internalType": "address",
          "name": "to",
          "type": "address"
        },
        {
          "indexed": false,
          "internalType": "uint256",
          "name": "value",
          "type": "uint256"
        }
      ],
      "name": "Transfer",
      "type": "event"
    },
    {
      "inputs": [
        {
          "internalType": "address",
          "name": "_token",
          "type": "address"
        },
        {
          "internalType": "uint256",
          "name": "jobId",
          "type": "uint256"
        }
      ],
      "name": "Jobdeposit",
      "outputs": [],
      "stateMutability": "payable",
      "type": "function"
    },
    {
      "inputs": [
        {
          "internalType": "address",
          "name": "_address",
          "type": "address"
        },
        {
          "internalType": "address",
          "name": "_token",
          "type": "address"
        }
      ],
      "name": "allowance",
      "outputs": [
        {
          "internalType": "uint256",
          "name": "",
          "type": "uint256"
        }
      ],
      "stateMutability": "view",
      "type": "function"
    },
    {
      "inputs": [
        {
          "internalType": "address",
          "name": "spender",
          "type": "address"
        },
        {
          "internalType": "uint256",
          "name": "amount",
          "type": "uint256"
        }
      ],
      "name": "approve",
      "outputs": [
        {
          "internalType": "bool",
          "name": "",
          "type": "bool"
        }
      ],
      "stateMutability": "nonpayable",
      "type": "function"
    },
    {
      "inputs": [
        {
          "internalType": "address",
          "name": "_token",
          "type": "address"
        },
        {
          "internalType": "address",
          "name": "spender",
          "type": "address"
        },
        {
          "internalType": "uint256",
          "name": "amount",
          "type": "uint256"
        }
      ],
      "name": "approveTokenSpend",
      "outputs": [
        {
          "internalType": "bool",
          "name": "",
          "type": "bool"
        }
      ],
      "stateMutability": "nonpayable",
      "type": "function"
    },
    {
      "inputs": [
        {
          "internalType": "address",
          "name": "_address",
          "type": "address"
        },
        {
          "internalType": "uint256",
          "name": "jobId",
          "type": "uint256"
        }
      ],
      "name": "assignJob",
      "outputs": [],
      "stateMutability": "nonpayable",
      "type": "function"
    },
    {
      "inputs": [
        {
          "internalType": "address",
          "name": "account",
          "type": "address"
        }
      ],
      "name": "balanceOf",
      "outputs": [
        {
          "internalType": "uint256",
          "name": "",
          "type": "uint256"
        }
      ],
      "stateMutability": "view",
      "type": "function"
    },
    {
      "inputs": [
        {
          "internalType": "address",
          "name": "_address",
          "type": "address"
        },
        {
          "internalType": "address",
          "name": "_token",
          "type": "address"
        }
      ],
      "name": "balanceOf",
      "outputs": [
        {
          "internalType": "uint256",
          "name": "",
          "type": "uint256"
        }
      ],
      "stateMutability": "view",
      "type": "function"
    },
    {
      "inputs": [
        {
          "internalType": "address",
          "name": "_address",
          "type": "address"
        },
        {
          "components": [
            {
              "internalType": "uint256",
              "name": "id",
              "type": "uint256"
            },
            {
              "internalType": "uint8",
              "name": "rating",
              "type": "uint8"
            },
            {
              "internalType": "string",
              "name": "review",
              "type": "string"
            },
            {
              "internalType": "uint256",
              "name": "jobId",
              "type": "uint256"
            }
          ],
          "internalType": "struct Detasker.Rating",
          "name": "_rating",
          "type": "tuple"
        },
        {
          "internalType": "uint256",
          "name": "jobId",
          "type": "uint256"
        }
      ],
      "name": "completeJob",
      "outputs": [],
      "stateMutability": "nonpayable",
      "type": "function"
    },
    {
      "inputs": [
        {
          "internalType": "address",
          "name": "_address",
          "type": "address"
        },
        {
          "components": [
            {
              "internalType": "uint256",
              "name": "id",
              "type": "uint256"
            },
            {
              "internalType": "bool",
              "name": "isFreelancer",
              "type": "bool"
            },
            {
              "internalType": "bool",
              "name": "active",
              "type": "bool"
            },
            {
              "internalType": "string",
              "name": "mainSkills",
              "type": "string"
            },
            {
              "internalType": "uint256[]",
              "name": "skillsId",
              "type": "uint256[]"
            }
          ],
          "internalType": "struct Detasker.Freelance",
          "name": "freelance",
          "type": "tuple"
        }
      ],
      "name": "createFreelance",
      "outputs": [],
      "stateMutability": "nonpayable",
      "type": "function"
    },
    {
      "inputs": [
        {
          "internalType": "address",
          "name": "_address",
          "type": "address"
        },
        {
          "components": [
            {
              "internalType": "bool",
              "name": "hasFunds",
              "type": "bool"
            },
            {
              "internalType": "uint256",
              "name": "id",
              "type": "uint256"
            },
            {
              "internalType": "uint256",
              "name": "profileId",
              "type": "uint256"
            },
            {
              "internalType": "string",
              "name": "title",
              "type": "string"
            },
            {
              "internalType": "string",
              "name": "description",
              "type": "string"
            },
            {
              "internalType": "string[]",
              "name": "img",
              "type": "string[]"
            },
            {
              "internalType": "address",
              "name": "owner",
              "type": "address"
            },
            {
              "internalType": "address",
              "name": "requester",
              "type": "address"
            },
            {
              "internalType": "uint256",
              "name": "postedDate",
              "type": "uint256"
            },
            {
              "internalType": "uint256",
              "name": "date",
              "type": "uint256"
            },
            {
              "internalType": "uint256",
              "name": "datePaid",
              "type": "uint256"
            },
            {
              "internalType": "string",
              "name": "documents",
              "type": "string"
            },
            {
              "internalType": "uint256",
              "name": "requestedPaymentAmount",
              "type": "uint256"
            },
            {
              "internalType": "address",
              "name": "token",
              "type": "address"
            },
            {
              "internalType": "uint256[]",
              "name": "tags",
              "type": "uint256[]"
            },
            {
              "internalType": "bool",
              "name": "publish",
              "type": "bool"
            },
            {
              "internalType": "bool",
              "name": "completed",
              "type": "bool"
            },
            {
              "internalType": "bool",
              "name": "paid",
              "type": "bool"
            },
            {
              "internalType": "bool",
              "name": "assigned",
              "type": "bool"
            },
            {
              "internalType": "uint256",
              "name": "dateCompleted",
              "type": "uint256"
            },
            {
              "internalType": "uint256",
              "name": "datePublished",
              "type": "uint256"
            },
            {
              "internalType": "uint256[]",
              "name": "dispute",
              "type": "uint256[]"
            },
            {
              "internalType": "bool",
              "name": "deleted",
              "type": "bool"
            }
          ],
          "internalType": "struct Detasker.Job",
          "name": "_job",
          "type": "tuple"
        }
      ],
      "name": "createJob",
      "outputs": [],
      "stateMutability": "nonpayable",
      "type": "function"
    },
    {
      "inputs": [
        {
          "internalType": "address",
          "name": "_address",
          "type": "address"
        },
        {
          "components": [
            {
              "internalType": "uint256",
              "name": "id",
              "type": "uint256"
            },
            {
              "internalType": "uint256",
              "name": "profileId",
              "type": "uint256"
            },
            {
              "internalType": "string",
              "name": "skill",
              "type": "string"
            },
            {
              "internalType": "uint256[]",
              "name": "skills",
              "type": "uint256[]"
            }
          ],
          "internalType": "struct Detasker.Skill",
          "name": "_skill",
          "type": "tuple"
        }
      ],
      "name": "createSkill",
      "outputs": [],
      "stateMutability": "nonpayable",
      "type": "function"
    },
    {
      "inputs": [
        {
          "internalType": "address",
          "name": "_address",
          "type": "address"
        },
        {
          "components": [
            {
              "internalType": "string",
              "name": "name",
              "type": "string"
            },
            {
              "internalType": "string",
              "name": "url",
              "type": "string"
            }
          ],
          "internalType": "struct Detasker.Social",
          "name": "_social",
          "type": "tuple"
        }
      ],
      "name": "createSocial",
      "outputs": [],
      "stateMutability": "nonpayable",
      "type": "function"
    },
    {
      "inputs": [
        {
          "internalType": "address",
          "name": "_address",
          "type": "address"
        },
        {
          "components": [
            {
              "internalType": "string",
              "name": "name",
              "type": "string"
            },
            {
              "internalType": "string",
              "name": "email",
              "type": "string"
            },
            {
              "components": [
                {
                  "internalType": "uint256",
                  "name": "id",
                  "type": "uint256"
                },
                {
                  "internalType": "bool",
                  "name": "isFreelancer",
                  "type": "bool"
                },
                {
                  "internalType": "bool",
                  "name": "active",
                  "type": "bool"
                },
                {
                  "internalType": "string",
                  "name": "mainSkills",
                  "type": "string"
                },
                {
                  "internalType": "uint256[]",
                  "name": "skillsId",
                  "type": "uint256[]"
                }
              ],
              "internalType": "struct Detasker.Freelance",
              "name": "freelance",
              "type": "tuple"
            },
            {
              "internalType": "string",
              "name": "image",
              "type": "string"
            },
            {
              "components": [
                {
                  "internalType": "string",
                  "name": "name",
                  "type": "string"
                },
                {
                  "internalType": "string",
                  "name": "url",
                  "type": "string"
                }
              ],
              "internalType": "struct Detasker.Social[]",
              "name": "socials",
              "type": "tuple[]"
            },
            {
              "components": [
                {
                  "internalType": "uint256",
                  "name": "id",
                  "type": "uint256"
                },
                {
                  "internalType": "string",
                  "name": "description",
                  "type": "string"
                },
                {
                  "internalType": "string",
                  "name": "url",
                  "type": "string"
                }
              ],
              "internalType": "struct Detasker.ShowcaseWork[]",
              "name": "showcaseWork",
              "type": "tuple[]"
            },
            {
              "components": [
                {
                  "internalType": "uint256",
                  "name": "id",
                  "type": "uint256"
                },
                {
                  "internalType": "uint256",
                  "name": "profileId",
                  "type": "uint256"
                },
                {
                  "internalType": "string",
                  "name": "skill",
                  "type": "string"
                },
                {
                  "internalType": "uint256[]",
                  "name": "skills",
                  "type": "uint256[]"
                }
              ],
              "internalType": "struct Detasker.Skill[]",
              "name": "skills",
              "type": "tuple[]"
            }
          ],
          "internalType": "struct Detasker.NewProfile",
          "name": "_profile",
          "type": "tuple"
        }
      ],
      "name": "createUser",
      "outputs": [],
      "stateMutability": "nonpayable",
      "type": "function"
    },
    {
      "inputs": [],
      "name": "decimals",
      "outputs": [
        {
          "internalType": "uint8",
          "name": "",
          "type": "uint8"
        }
      ],
      "stateMutability": "view",
      "type": "function"
    },
    {
      "inputs": [
        {
          "internalType": "address",
          "name": "spender",
          "type": "address"
        },
        {
          "internalType": "uint256",
          "name": "subtractedValue",
          "type": "uint256"
        }
      ],
      "name": "decreaseAllowance",
      "outputs": [
        {
          "internalType": "bool",
          "name": "",
          "type": "bool"
        }
      ],
      "stateMutability": "nonpayable",
      "type": "function"
    },
    {
      "inputs": [
        {
          "internalType": "uint256",
          "name": "_days",
          "type": "uint256"
        }
      ],
      "name": "getConformationDays",
      "outputs": [
        {
          "internalType": "uint256",
          "name": "",
          "type": "uint256"
        }
      ],
      "stateMutability": "pure",
      "type": "function"
    },
    {
      "inputs": [
        {
          "internalType": "uint256",
          "name": "_jobId",
          "type": "uint256"
        }
      ],
      "name": "getJobById",
      "outputs": [
        {
          "components": [
            {
              "internalType": "bool",
              "name": "hasFunds",
              "type": "bool"
            },
            {
              "internalType": "uint256",
              "name": "id",
              "type": "uint256"
            },
            {
              "internalType": "uint256",
              "name": "profileId",
              "type": "uint256"
            },
            {
              "internalType": "string",
              "name": "title",
              "type": "string"
            },
            {
              "internalType": "string",
              "name": "description",
              "type": "string"
            },
            {
              "internalType": "string[]",
              "name": "img",
              "type": "string[]"
            },
            {
              "internalType": "address",
              "name": "owner",
              "type": "address"
            },
            {
              "internalType": "address",
              "name": "requester",
              "type": "address"
            },
            {
              "internalType": "uint256",
              "name": "postedDate",
              "type": "uint256"
            },
            {
              "internalType": "uint256",
              "name": "date",
              "type": "uint256"
            },
            {
              "internalType": "uint256",
              "name": "datePaid",
              "type": "uint256"
            },
            {
              "internalType": "string",
              "name": "documents",
              "type": "string"
            },
            {
              "internalType": "uint256",
              "name": "requestedPaymentAmount",
              "type": "uint256"
            },
            {
              "internalType": "address",
              "name": "token",
              "type": "address"
            },
            {
              "internalType": "uint256[]",
              "name": "tags",
              "type": "uint256[]"
            },
            {
              "internalType": "bool",
              "name": "publish",
              "type": "bool"
            },
            {
              "internalType": "bool",
              "name": "completed",
              "type": "bool"
            },
            {
              "internalType": "bool",
              "name": "paid",
              "type": "bool"
            },
            {
              "internalType": "bool",
              "name": "assigned",
              "type": "bool"
            },
            {
              "internalType": "uint256",
              "name": "dateCompleted",
              "type": "uint256"
            },
            {
              "internalType": "uint256",
              "name": "datePublished",
              "type": "uint256"
            },
            {
              "internalType": "uint256[]",
              "name": "dispute",
              "type": "uint256[]"
            },
            {
              "internalType": "bool",
              "name": "deleted",
              "type": "bool"
            }
          ],
          "internalType": "struct Detasker.Job",
          "name": "",
          "type": "tuple"
        }
      ],
      "stateMutability": "view",
      "type": "function"
    },
    {
      "inputs": [
        {
          "internalType": "uint256",
          "name": "_jobId",
          "type": "uint256"
        },
        {
          "internalType": "address",
          "name": "_address",
          "type": "address"
        }
      ],
      "name": "getJobById",
      "outputs": [
        {
          "components": [
            {
              "internalType": "bool",
              "name": "hasFunds",
              "type": "bool"
            },
            {
              "internalType": "uint256",
              "name": "id",
              "type": "uint256"
            },
            {
              "internalType": "uint256",
              "name": "profileId",
              "type": "uint256"
            },
            {
              "internalType": "string",
              "name": "title",
              "type": "string"
            },
            {
              "internalType": "string",
              "name": "description",
              "type": "string"
            },
            {
              "internalType": "string[]",
              "name": "img",
              "type": "string[]"
            },
            {
              "internalType": "address",
              "name": "owner",
              "type": "address"
            },
            {
              "internalType": "address",
              "name": "requester",
              "type": "address"
            },
            {
              "internalType": "uint256",
              "name": "postedDate",
              "type": "uint256"
            },
            {
              "internalType": "uint256",
              "name": "date",
              "type": "uint256"
            },
            {
              "internalType": "uint256",
              "name": "datePaid",
              "type": "uint256"
            },
            {
              "internalType": "string",
              "name": "documents",
              "type": "string"
            },
            {
              "internalType": "uint256",
              "name": "requestedPaymentAmount",
              "type": "uint256"
            },
            {
              "internalType": "address",
              "name": "token",
              "type": "address"
            },
            {
              "internalType": "uint256[]",
              "name": "tags",
              "type": "uint256[]"
            },
            {
              "internalType": "bool",
              "name": "publish",
              "type": "bool"
            },
            {
              "internalType": "bool",
              "name": "completed",
              "type": "bool"
            },
            {
              "internalType": "bool",
              "name": "paid",
              "type": "bool"
            },
            {
              "internalType": "bool",
              "name": "assigned",
              "type": "bool"
            },
            {
              "internalType": "uint256",
              "name": "dateCompleted",
              "type": "uint256"
            },
            {
              "internalType": "uint256",
              "name": "datePublished",
              "type": "uint256"
            },
            {
              "internalType": "uint256[]",
              "name": "dispute",
              "type": "uint256[]"
            },
            {
              "internalType": "bool",
              "name": "deleted",
              "type": "bool"
            }
          ],
          "internalType": "struct Detasker.Job",
          "name": "",
          "type": "tuple"
        }
      ],
      "stateMutability": "view",
      "type": "function"
    },
    {
      "inputs": [],
      "name": "getOwner",
      "outputs": [
        {
          "internalType": "address",
          "name": "",
          "type": "address"
        }
      ],
      "stateMutability": "view",
      "type": "function"
    },
    {
      "inputs": [],
      "name": "getUserCount",
      "outputs": [
        {
          "internalType": "uint256",
          "name": "",
          "type": "uint256"
        }
      ],
      "stateMutability": "view",
      "type": "function"
    },
    {
      "inputs": [
        {
          "internalType": "address",
          "name": "spender",
          "type": "address"
        },
        {
          "internalType": "uint256",
          "name": "addedValue",
          "type": "uint256"
        }
      ],
      "name": "increaseAllowance",
      "outputs": [
        {
          "internalType": "bool",
          "name": "",
          "type": "bool"
        }
      ],
      "stateMutability": "nonpayable",
      "type": "function"
    },
    {
      "inputs": [
        {
          "internalType": "address",
          "name": "_token",
          "type": "address"
        },
        {
          "internalType": "uint256",
          "name": "jobId",
          "type": "uint256"
        }
      ],
      "name": "jobWithdraw",
      "outputs": [],
      "stateMutability": "payable",
      "type": "function"
    },
    {
      "inputs": [],
      "name": "name",
      "outputs": [
        {
          "internalType": "string",
          "name": "",
          "type": "string"
        }
      ],
      "stateMutability": "view",
      "type": "function"
    },
    {
      "inputs": [
        {
          "internalType": "address",
          "name": "_token",
          "type": "address"
        },
        {
          "internalType": "uint256",
          "name": "jobId",
          "type": "uint256"
        }
      ],
      "name": "ownerWithdraw",
      "outputs": [],
      "stateMutability": "payable",
      "type": "function"
    },
    {
      "inputs": [
        {
          "internalType": "uint256",
          "name": "_jobId",
          "type": "uint256"
        }
      ],
      "name": "payForJobByOwner",
      "outputs": [],
      "stateMutability": "payable",
      "type": "function"
    },
    {
      "inputs": [
        {
          "internalType": "uint256",
          "name": "_jobId",
          "type": "uint256"
        }
      ],
      "name": "recievePaymentForJobByRequester",
      "outputs": [],
      "stateMutability": "payable",
      "type": "function"
    },
    {
      "inputs": [
        {
          "internalType": "address",
          "name": "_address",
          "type": "address"
        },
        {
          "internalType": "uint256",
          "name": "jobId",
          "type": "uint256"
        }
      ],
      "name": "setJobDoneByOwner",
      "outputs": [],
      "stateMutability": "nonpayable",
      "type": "function"
    },
    {
      "inputs": [
        {
          "internalType": "address",
          "name": "_address",
          "type": "address"
        },
        {
          "internalType": "uint256",
          "name": "jobId",
          "type": "uint256"
        }
      ],
      "name": "setJobDoneByRequester",
      "outputs": [],
      "stateMutability": "nonpayable",
      "type": "function"
    },
    {
      "inputs": [],
      "name": "symbol",
      "outputs": [
        {
          "internalType": "string",
          "name": "",
          "type": "string"
        }
      ],
      "stateMutability": "view",
      "type": "function"
    },
    {
      "inputs": [],
      "name": "timeForConformation",
      "outputs": [
        {
          "internalType": "uint256",
          "name": "",
          "type": "uint256"
        }
      ],
      "stateMutability": "view",
      "type": "function"
    },
    {
      "inputs": [],
      "name": "totalSupply",
      "outputs": [
        {
          "internalType": "uint256",
          "name": "",
          "type": "uint256"
        }
      ],
      "stateMutability": "view",
      "type": "function"
    },
    {
      "inputs": [
        {
          "internalType": "address",
          "name": "to",
          "type": "address"
        },
        {
          "internalType": "uint256",
          "name": "amount",
          "type": "uint256"
        }
      ],
      "name": "transfer",
      "outputs": [
        {
          "internalType": "bool",
          "name": "",
          "type": "bool"
        }
      ],
      "stateMutability": "nonpayable",
      "type": "function"
    },
    {
      "inputs": [
        {
          "internalType": "address",
          "name": "from",
          "type": "address"
        },
        {
          "internalType": "address",
          "name": "to",
          "type": "address"
        },
        {
          "internalType": "uint256",
          "name": "amount",
          "type": "uint256"
        }
      ],
      "name": "transferFrom",
      "outputs": [
        {
          "internalType": "bool",
          "name": "",
          "type": "bool"
        }
      ],
      "stateMutability": "nonpayable",
      "type": "function"
    },
    {
      "inputs": [
        {
          "internalType": "address",
          "name": "",
          "type": "address"
        }
      ],
      "name": "users",
      "outputs": [
        {
          "internalType": "uint256",
          "name": "id",
          "type": "uint256"
        },
        {
          "internalType": "uint256",
          "name": "freeLanceId",
          "type": "uint256"
        },
        {
          "internalType": "string",
          "name": "name",
          "type": "string"
        },
        {
          "internalType": "string",
          "name": "email",
          "type": "string"
        },
        {
          "internalType": "uint256",
          "name": "signedUp",
          "type": "uint256"
        },
        {
          "internalType": "string",
          "name": "image",
          "type": "string"
        }
      ],
      "stateMutability": "view",
      "type": "function"
    },
    {
      "inputs": [],
      "name": "vars",
      "outputs": [
        {
          "internalType": "address",
          "name": "owner",
          "type": "address"
        },
        {
          "internalType": "uint256",
          "name": "jobCount",
          "type": "uint256"
        },
        {
          "internalType": "uint256",
          "name": "freelanceCount",
          "type": "uint256"
        },
        {
          "internalType": "uint256",
          "name": "ratingCount",
          "type": "uint256"
        },
        {
          "internalType": "uint256",
          "name": "tagCount",
          "type": "uint256"
        },
        {
          "internalType": "uint256",
          "name": "skillCount",
          "type": "uint256"
        },
        {
          "internalType": "uint256",
          "name": "userCount",
          "type": "uint256"
        },
        {
          "internalType": "address",
          "name": "bnbToken",
          "type": "address"
        }
      ],
      "stateMutability": "view",
      "type": "function"
    },
    {
      "stateMutability": "payable",
      "type": "receive"
    }
  ],
  "bytecode": "0x608060405262000010601e620000e7565b6013553480156200002057600080fd5b5060405162004328380380620043288339810160408190526200004391620000fe565b604051806040016040528060088152602001672232ba30b9b5b2b960c11b815250604051806040016040528060048152602001636474736b60e01b8152508160039081620000929190620001d5565b506004620000a18282620001d5565b5050600680546001600160a01b039093166001600160a01b0319938416179055506012805490911673ee786a1aa32fc164cca9a28f763fbc835e748129179055620002c7565b6000620000f88262015180620002a1565b92915050565b6000602082840312156200011157600080fd5b81516001600160a01b03811681146200012957600080fd5b9392505050565b634e487b7160e01b600052604160045260246000fd5b600181811c908216806200015b57607f821691505b6020821081036200017c57634e487b7160e01b600052602260045260246000fd5b50919050565b601f821115620001d057600081815260208120601f850160051c81016020861015620001ab5750805b601f850160051c820191505b81811015620001cc57828155600101620001b7565b5050505b505050565b81516001600160401b03811115620001f157620001f162000130565b620002098162000202845462000146565b8462000182565b602080601f831160018114620002415760008415620002285750858301515b600019600386901b1c1916600185901b178555620001cc565b600085815260208120601f198616915b82811015620002725788860151825594840194600190910190840162000251565b5085821015620002915787850151600019600388901b60f8161c191681555b5050505050600190811b01905550565b8082028115828204841417620000f857634e487b7160e01b600052601160045260246000fd5b61405180620002d76000396000f3fe6080604052600436106102085760003560e01c8063957822e711610118578063b770242f116100a0578063dbfc25121161006f578063dbfc251214610689578063dd62ed3e146106a9578063e07af654146106c9578063e683e0b2146106dc578063f7888aec146106ef57600080fd5b8063b770242f1461063a578063d1388c751461064d578063d9c88e1414610663578063db9667c71461067657600080fd5b8063a7d39dd6116100e7578063a7d39dd614610593578063a87430ba146105b3578063a9059cbb146105e5578063b5cb15f714610605578063b64439161461061a57600080fd5b8063957822e71461051e57806395d1d3b01461053e57806395d89b411461055e578063a457c2d71461057357600080fd5b8063395093511161019b5780637155b4f91161016a5780637155b4f9146104765780637bf8d39b146104965780638412277d146104b65780638937574c146104d6578063893d20e8146104f657600080fd5b806339509351146103d35780634adbc7c4146103f357806369d7428f1461041357806370a082311461044057600080fd5b80630e5376d6116101d75780630e5376d6146102ef57806318160ddd1461037857806323b872dd14610397578063313ce567146103b757600080fd5b806306fdde031461025257806308777c001461027d578063095ea7b31461029f5780630b27c9ab146102cf57600080fd5b3661024d573360009081526005602090815260408083206012546001600160a01b0316845260090190915281208054349290610245908490612d70565b925050819055005b600080fd5b34801561025e57600080fd5b50610267610739565b6040516102749190612dc9565b60405180910390f35b34801561028957600080fd5b5061029d610298366004613393565b6107cb565b005b3480156102ab57600080fd5b506102bf6102ba3660046134ea565b6109e4565b6040519015158152602001610274565b3480156102db57600080fd5b5061029d6102ea366004613514565b6109fe565b3480156102fb57600080fd5b50600654600c54600d54600e54600f5460105460115460125461032e976001600160a01b03908116979695949392911688565b604080516001600160a01b03998a16815260208101989098528701959095526060860193909352608085019190915260a084015260c083015290911660e082015261010001610274565b34801561038457600080fd5b506002545b604051908152602001610274565b3480156103a357600080fd5b506102bf6103b2366004613561565b610a5b565b3480156103c357600080fd5b5060405160128152602001610274565b3480156103df57600080fd5b506102bf6103ee3660046134ea565b610a7f565b3480156103ff57600080fd5b5061029d61040e36600461359d565b610aa1565b34801561041f57600080fd5b5061043361042e3660046135e0565b610b86565b6040516102749190613689565b34801561044c57600080fd5b5061038961045b366004613887565b6001600160a01b031660009081526020819052604090205490565b34801561048257600080fd5b5061029d6104913660046134ea565b611069565b3480156104a257600080fd5b506104336104b13660046138a2565b611096565b3480156104c257600080fd5b506102bf6104d1366004613561565b6115e0565b3480156104e257600080fd5b5061029d6104f13660046138ce565b61165f565b34801561050257600080fd5b506006546040516001600160a01b039091168152602001610274565b34801561052a57600080fd5b506103896105393660046135e0565b611823565b34801561054a57600080fd5b5061029d6105593660046134ea565b611832565b34801561056a57600080fd5b506102676118b5565b34801561057f57600080fd5b506102bf61058e3660046134ea565b6118c4565b34801561059f57600080fd5b5061029d6105ae3660046134ea565b61193f565b3480156105bf57600080fd5b506105d36105ce366004613887565b611965565b60405161027496959493929190613983565b3480156105f157600080fd5b506102bf6106003660046134ea565b611b32565b34801561061157600080fd5b50601154610389565b34801561062657600080fd5b5061029d610635366004613a5a565b611b40565b61029d6106483660046135e0565b611dbb565b34801561065957600080fd5b5061038960135481565b61029d6106713660046134ea565b611ee4565b61029d6106843660046135e0565b612066565b34801561069557600080fd5b5061029d6106a4366004613c8c565b61215d565b3480156106b557600080fd5b506103896106c4366004613ccf565b6122f2565b61029d6106d73660046134ea565b612366565b61029d6106ea3660046134ea565b612445565b3480156106fb57600080fd5b5061038961070a366004613ccf565b6001600160a01b0391821660009081526005602090815260408083209390941682526009909201909152205490565b60606003805461074890613cf9565b80601f016020809104026020016040519081016040528092919081815260200182805461077490613cf9565b80156107c15780601f10610796576101008083540402835291602001916107c1565b820191906000526020600020905b8154815290600101906020018083116107a457829003601f168201915b5050505050905090565b601180549060006107db83613d33565b90915550506011546001600160a01b038316600090815260056020526040902090815581516002909101906108109082613d9a565b506020808201516001600160a01b0384166000908152600590925260409091206002019061083e9082613d9a565b506001600160a01b0382166000908152600560208190526040909120429181019190915560608201516006909101906108779082613d9a565b5061088682826040015161215d565b60c081015151156109335760005b8160c001515181101561093157306001600160a01b0316634adbc7c4848460c0015184815181106108c7576108c7613e59565b60200260200101516040518363ffffffff1660e01b81526004016108ec929190613e6f565b600060405180830381600087803b15801561090657600080fd5b505af115801561091a573d6000803e3d6000fd5b50505050808061092990613d33565b915050610894565b505b608081015151156109e05760005b8160800151518110156109de57306001600160a01b0316630b27c9ab848460800151848151811061097457610974613e59565b60200260200101516040518363ffffffff1660e01b8152600401610999929190613ed3565b600060405180830381600087803b1580156109b357600080fd5b505af11580156109c7573d6000803e3d6000fd5b5050505080806109d690613d33565b915050610941565b505b5050565b6000336109f2818585612616565b60019150505b92915050565b6001600160a01b038216600090815260056020908152604082206004018054600181018255908352912082518392600202909101908190610a3f9082613d9a565b5060208201516001820190610a549082613d9a565b5050505050565b600033610a6985828561273a565b610a748585856127b4565b506001949350505050565b6000336109f2818585610a9283836122f2565b610a9c9190612d70565b612616565b6010805460009182610ab283613d33565b909155508083526001600160a01b038416600090815260056020526040902060010154600b8054929350918110610aeb57610aeb613e59565b6000918252602080832060036004909302019190910180546001810182559083529120018190556009805483919083908110610b2957610b29613e59565b906000526020600020906004020160008201518160000155602082015181600101556040820151816002019081610b609190613d9a565b5060608201518051610b7c916003840191602090910190612b79565b5050506010555050565b610b8e612bc4565b600060066001018381548110610ba657610ba6613e59565b9060005260206000209060140201604051806102e00160405290816000820160009054906101000a900460ff161515151581526020016001820154815260200160028201548152602001600382018054610bff90613cf9565b80601f0160208091040260200160405190810160405280929190818152602001828054610c2b90613cf9565b8015610c785780601f10610c4d57610100808354040283529160200191610c78565b820191906000526020600020905b815481529060010190602001808311610c5b57829003601f168201915b50505050508152602001600482018054610c9190613cf9565b80601f0160208091040260200160405190810160405280929190818152602001828054610cbd90613cf9565b8015610d0a5780601f10610cdf57610100808354040283529160200191610d0a565b820191906000526020600020905b815481529060010190602001808311610ced57829003601f168201915b5050505050815260200160058201805480602002602001604051908101604052809291908181526020016000905b82821015610de4578382906000526020600020018054610d5790613cf9565b80601f0160208091040260200160405190810160405280929190818152602001828054610d8390613cf9565b8015610dd05780601f10610da557610100808354040283529160200191610dd0565b820191906000526020600020905b815481529060010190602001808311610db357829003601f168201915b505050505081526020019060010190610d38565b5050509082525060068201546001600160a01b03908116602083015260078301541660408201526008820154606082015260098201546080820152600a82015460a0820152600b8201805460c090920191610e3e90613cf9565b80601f0160208091040260200160405190810160405280929190818152602001828054610e6a90613cf9565b8015610eb75780601f10610e8c57610100808354040283529160200191610eb7565b820191906000526020600020905b815481529060010190602001808311610e9a57829003601f168201915b50505050508152602001600c8201548152602001600d820160009054906101000a90046001600160a01b03166001600160a01b03166001600160a01b03168152602001600e8201805480602002602001604051908101604052809291908181526020018280548015610f4857602002820191906000526020600020905b815481526020019060010190808311610f34575b5050509183525050600f82015460ff8082161515602080850191909152610100830482161515604080860191909152620100008404831615156060860152630100000090930490911615156080840152601084015460a0840152601184015460c084015260128401805483518184028101840190945280845260e0909401939091830182828015610ff857602002820191906000526020600020905b815481526020019060010190808311610fe4575b50505091835250506013919091015460ff1615156020918201528101519091506109f85760405162461bcd60e51b815260206004820181905260248201527f556e61626c6520746f206765742061206a6f622077697468207468617420696460448201526064015b60405180910390fd5b600061107482610b86565b60016102408201526001600160a01b03841660e082015290506109de81612969565b61109e612bc4565b6000600660010184815481106110b6576110b6613e59565b9060005260206000209060140201604051806102e00160405290816000820160009054906101000a900460ff16151515158152602001600182015481526020016002820154815260200160038201805461110f90613cf9565b80601f016020809104026020016040519081016040528092919081815260200182805461113b90613cf9565b80156111885780601f1061115d57610100808354040283529160200191611188565b820191906000526020600020905b81548152906001019060200180831161116b57829003601f168201915b505050505081526020016004820180546111a190613cf9565b80601f01602080910402602001604051908101604052809291908181526020018280546111cd90613cf9565b801561121a5780601f106111ef5761010080835404028352916020019161121a565b820191906000526020600020905b8154815290600101906020018083116111fd57829003601f168201915b5050505050815260200160058201805480602002602001604051908101604052809291908181526020016000905b828210156112f457838290600052602060002001805461126790613cf9565b80601f016020809104026020016040519081016040528092919081815260200182805461129390613cf9565b80156112e05780601f106112b5576101008083540402835291602001916112e0565b820191906000526020600020905b8154815290600101906020018083116112c357829003601f168201915b505050505081526020019060010190611248565b5050509082525060068201546001600160a01b03908116602083015260078301541660408201526008820154606082015260098201546080820152600a82015460a0820152600b8201805460c09092019161134e90613cf9565b80601f016020809104026020016040519081016040528092919081815260200182805461137a90613cf9565b80156113c75780601f1061139c576101008083540402835291602001916113c7565b820191906000526020600020905b8154815290600101906020018083116113aa57829003601f168201915b50505050508152602001600c8201548152602001600d820160009054906101000a90046001600160a01b03166001600160a01b03166001600160a01b03168152602001600e820180548060200260200160405190810160405280929190818152602001828054801561145857602002820191906000526020600020905b815481526020019060010190808311611444575b5050509183525050600f82015460ff8082161515602080850191909152610100830482161515604080860191909152620100008404831615156060860152630100000090930490911615156080840152601084015460a0840152601184015460c084015260128401805483518184028101840190945280845260e090940193909183018282801561150857602002820191906000526020600020905b8154815260200190600101908083116114f4575b50505091835250506013919091015460ff1615156020918201528101519091506115745760405162461bcd60e51b815260206004820181905260248201527f556e61626c6520746f206765742061206a6f62207769746820746861742069646044820152606401611060565b826001600160a01b03168160c001516001600160a01b0316146115d95760405162461bcd60e51b815260206004820152601c60248201527f546869732069736e277420796f75722061737369676e6564206a6f62000000006044820152606401611060565b9392505050565b60405163095ea7b360e01b81526001600160a01b038381166004830152602482018390526000919085169063095ea7b3906044016020604051808303816000875af1158015611633573d6000803e3d6000fd5b505050506040513d601f19601f820116820180604052508101906116579190613f19565b949350505050565b600061166a82610b86565b9050836001600160a01b03168160e001516001600160a01b0316146116d15760405162461bcd60e51b815260206004820152601c60248201527f546869732069736e277420796f75722061737369676e6564206a6f62000000006044820152606401611060565b6005836020015160ff1611156117385760405162461bcd60e51b815260206004820152602660248201527f506c6561736520676976652074686973206a6f62206120726174696e67206f7560448201526574206f66203560d01b6064820152608401611060565b600e805490600061174883613d33565b9091555050600e5480845260088054859290811061176857611768613e59565b60009182526020918290208351600492909202019081559082015160018201805460ff191660ff909216919091179055604082015160028201906117ac9082613d9a565b5060609182015160039091015560c082015160e0830151610180840151604080516001600160a01b039485168152939092166020840152908201526001918101919091527ff0df160ccfdc4d85bea09bf3ea667729d9e0c9126b24d28eef8b06e5fe027f2f9060800160405180910390a150505050565b60006109f88262015180613f36565b600061183d82610b86565b9050826001600160a01b03168160e001516001600160a01b03161461189d5760405162461bcd60e51b81526020600482015260166024820152752cb7ba903237b713ba1037bbb7103a3434b9903537b160511b6044820152606401611060565b6001610200820152426102608201526109de81612969565b60606004805461074890613cf9565b600033816118d282866122f2565b9050838110156119325760405162461bcd60e51b815260206004820152602560248201527f45524332303a2064656372656173656420616c6c6f77616e63652062656c6f77604482015264207a65726f60d81b6064820152608401611060565b610a748286868403612616565b600061194b8284611096565b60016102008201524261026082015290506109de81612969565b6005602052600090815260409020805460018201546002830180549293919261198d90613cf9565b80601f01602080910402602001604051908101604052809291908181526020018280546119b990613cf9565b8015611a065780601f106119db57610100808354040283529160200191611a06565b820191906000526020600020905b8154815290600101906020018083116119e957829003601f168201915b505050505090806003018054611a1b90613cf9565b80601f0160208091040260200160405190810160405280929190818152602001828054611a4790613cf9565b8015611a945780601f10611a6957610100808354040283529160200191611a94565b820191906000526020600020905b815481529060010190602001808311611a7757829003601f168201915b505050505090806005015490806006018054611aaf90613cf9565b80601f0160208091040260200160405190810160405280929190818152602001828054611adb90613cf9565b8015611b285780601f10611afd57610100808354040283529160200191611b28565b820191906000526020600020905b815481529060010190602001808311611b0b57829003601f168201915b5050505050905086565b6000336109f28185856127b4565b600c8054906000611b5083613d33565b9091555050600c5460208201526101e081015115611b7057426101008201525b6001600160a01b03821660c0820181905260009081526005602090815260408220600c8054600792830180546001810182559086529390942090920192909255548154839291908110611bc557611bc5613e59565b6000918252602091829020835160149290920201805460ff19169115159190911781559082015160018201556040820151600282015560608201516003820190611c0f9082613d9a565b5060808201516004820190611c249082613d9a565b5060a08201518051611c40916005840191602090910190612c99565b5060c08201516006820180546001600160a01b039283166001600160a01b03199182161790915560e084015160078401805491909316911617905561010082015160088201556101208201516009820155610140820151600a820155610160820151600b820190611cb19082613d9a565b50610180820151600c8201556101a0820151600d820180546001600160a01b0319166001600160a01b039092169190911790556101c08201518051611d0091600e840191602090910190612b79565b506101e0820151600f82018054610200850151610220860151610240870151151563010000000263ff0000001991151562010000029190911663ffff0000199215156101000261ff00199615159690961661ffff1990941693909317949094171617919091179055610260820151601082015561028082015160118201556102a08201518051611d9a916012840191602090910190612b79565b506102c091909101516013909101805460ff19169115159190911790555050565b6000611dc682610b86565b905080610220015115611e1b5760405162461bcd60e51b815260206004820152601d60248201527f54686973206a6f622068617320616c72656164206265656e20706169640000006044820152606401611060565b80610200015115611e3e5760405162461bcd60e51b815260040161106090613f4d565b60c08101516001600160a01b03163314611e935760405162461bcd60e51b81526020600482015260166024820152752cb7ba903237b713ba1037bbb7103a3434b9903537b160511b6044820152606401611060565b611ea2816101a0015183611ee4565b610180810151604080519182524260208301527f181c311d67d2e4613578d57c5d9b50bf646716d62b0bfc741fbd0f76f40b28fe910160405180910390a15050565b6000611eef82610b86565b60c0810151604051636eb1769f60e11b81523060048201526001600160a01b03918216602482015291925034919085169063dd62ed3e90604401602060405180830381865afa158015611f46573d6000803e3d6000fd5b505050506040513d601f19601f82011682018060405250810190611f6a9190613f9a565b10611f875760405162461bcd60e51b815260040161106090613fb3565b80610180015134106109de5760c08101516040516323b872dd60e01b81523060048201526001600160a01b039182166024820152346044820152908416906323b872dd906064015b6020604051808303816000875af1158015611fee573d6000803e3d6000fd5b505050506040513d601f19601f820116820180604052508101906120129190613f19565b503360009081526005602090815260408083206001600160a01b038716845260090190915281208054349290612049908490614008565b90915550506001610220820152426101408201526109de81612969565b600061207182610b86565b9050806102200151156120c65760405162461bcd60e51b815260206004820152601d60248201527f54686973206a6f622068617320616c72656164206265656e20706169640000006044820152606401611060565b806102000151156120e95760405162461bcd60e51b815260040161106090613f4d565b336001600160a01b03168160e001516001600160a01b03160361214e5760405162461bcd60e51b815260206004820181905260248201527f596f7520617265206e6f742061737369676e656420746f2074686973206a6f626044820152606401611060565b611ea2816101a0015183612366565b6001600160a01b03821660009081526005602052604081206001015490036121d35760405162461bcd60e51b815260206004820152602360248201527f506c6561736520676f207468726f7567682074686520757064617465206d65746044820152621a1bd960ea1b6064820152608401611060565b600d80549060006121e383613d33565b9091555050600d548152600b8054600181018255600091909152815160049091027f0175b7a638427703f0dbe7bb9bbf987a2551717b34e79f33b5b1008d1fa01db9810191825560208301517f0175b7a638427703f0dbe7bb9bbf987a2551717b34e79f33b5b1008d1fa01dba82018054604086015115156101000261ff00199315159390931661ffff199091161791909117905560608301518392917f0175b7a638427703f0dbe7bb9bbf987a2551717b34e79f33b5b1008d1fa01dbb01906122ad9082613d9a565b50608082015180516122c9916003840191602090910190612b79565b5050600d546001600160a01b039093166000908152600560205260409020600101929092555050565b604051636eb1769f60e11b81523060048201526001600160a01b0383811660248301526000919083169063dd62ed3e90604401602060405180830381865afa158015612342573d6000803e3d6000fd5b505050506040513d601f19601f820116820180604052508101906115d99190613f9a565b600061237182610b86565b604051636eb1769f60e11b815230600482015233602482015290915034906001600160a01b0385169063dd62ed3e90604401602060405180830381865afa1580156123c0573d6000803e3d6000fd5b505050506040513d601f19601f820116820180604052508101906123e49190613f9a565b106124015760405162461bcd60e51b815260040161106090613fb3565b80610180015134106109de576040516323b872dd60e01b81523060048201523360248201523460448201526001600160a01b038416906323b872dd90606401611fcf565b60006124518233611096565b604051636eb1769f60e11b815233600482015230602482015290915034906001600160a01b0385169063dd62ed3e90604401602060405180830381865afa1580156124a0573d6000803e3d6000fd5b505050506040513d601f19601f820116820180604052508101906124c49190613f9a565b106125415760405162461bcd60e51b815260206004820152604160248201527f416d6f756e7420617070726f766564206973206c657373207468656e20746f6b60448201527f656e207472616e7366657272656420616d6f756e7420746f20636f6e747261636064820152601d60fa1b608482015260a401611060565b80610180015134106109de5760405163a9059cbb60e01b81523060048201523460248201526001600160a01b0384169063a9059cbb906044016020604051808303816000875af1158015612599573d6000803e3d6000fd5b505050506040513d601f19601f820116820180604052508101906125bd9190613f19565b503360009081526005602090815260408083206001600160a01b0387168452600901909152812080543492906125f4908490612d70565b90915550506001600160a01b0383166101a0820152600181526109de81612969565b6001600160a01b0383166126785760405162461bcd60e51b8152602060048201526024808201527f45524332303a20617070726f76652066726f6d20746865207a65726f206164646044820152637265737360e01b6064820152608401611060565b6001600160a01b0382166126d95760405162461bcd60e51b815260206004820152602260248201527f45524332303a20617070726f766520746f20746865207a65726f206164647265604482015261737360f01b6064820152608401611060565b6001600160a01b0383811660008181526001602090815260408083209487168084529482529182902085905590518481527f8c5be1e5ebec7d5bd14f71427d1e84f3dd0314c0f7b2291e5b200ac8c7c3b925910160405180910390a3505050565b600061274684846122f2565b905060001981146127ae57818110156127a15760405162461bcd60e51b815260206004820152601d60248201527f45524332303a20696e73756666696369656e7420616c6c6f77616e63650000006044820152606401611060565b6127ae8484848403612616565b50505050565b6001600160a01b0383166128185760405162461bcd60e51b815260206004820152602560248201527f45524332303a207472616e736665722066726f6d20746865207a65726f206164604482015264647265737360d81b6064820152608401611060565b6001600160a01b03821661287a5760405162461bcd60e51b815260206004820152602360248201527f45524332303a207472616e7366657220746f20746865207a65726f206164647260448201526265737360e81b6064820152608401611060565b6128858383836109de565b6001600160a01b038316600090815260208190526040902054818110156128fd5760405162461bcd60e51b815260206004820152602660248201527f45524332303a207472616e7366657220616d6f756e7420657863656564732062604482015265616c616e636560d01b6064820152608401611060565b6001600160a01b03848116600081815260208181526040808320878703905593871680835291849020805487019055925185815290927fddf252ad1be2c89b69c2b068fc378daa952ba7f163c4a11628f55a4df523b3ef910160405180910390a36127ae8484846109de565b80600660010182602001518154811061298457612984613e59565b6000918252602091829020835160149290920201805460ff191691151591909117815590820151600182015560408201516002820155606082015160038201906129ce9082613d9a565b50608082015160048201906129e39082613d9a565b5060a082015180516129ff916005840191602090910190612c99565b5060c08201516006820180546001600160a01b039283166001600160a01b03199182161790915560e084015160078401805491909316911617905561010082015160088201556101208201516009820155610140820151600a820155610160820151600b820190612a709082613d9a565b50610180820151600c8201556101a0820151600d820180546001600160a01b0319166001600160a01b039092169190911790556101c08201518051612abf91600e840191602090910190612b79565b506101e0820151600f82018054610200850151610220860151610240870151151563010000000263ff0000001991151562010000029190911663ffff0000199215156101000261ff00199615159690961661ffff1990941693909317949094171617919091179055610260820151601082015561028082015160118201556102a08201518051612b59916012840191602090910190612b79565b506102c091909101516013909101805460ff191691151591909117905550565b828054828255906000526020600020908101928215612bb4579160200282015b82811115612bb4578251825591602001919060010190612b99565b50612bc0929150612ceb565b5090565b604051806102e00160405280600015158152602001600081526020016000815260200160608152602001606081526020016060815260200160006001600160a01b0316815260200160006001600160a01b03168152602001600081526020016000815260200160008152602001606081526020016000815260200160006001600160a01b03168152602001606081526020016000151581526020016000151581526020016000151581526020016000151581526020016000815260200160008152602001606081526020016000151581525090565b828054828255906000526020600020908101928215612cdf579160200282015b82811115612cdf5782518290612ccf9082613d9a565b5091602001919060010190612cb9565b50612bc0929150612d00565b5b80821115612bc05760008155600101612cec565b80821115612bc0576000612d148282612d1d565b50600101612d00565b508054612d2990613cf9565b6000825580601f10612d39575050565b601f016020900490600052602060002090810190612d579190612ceb565b50565b634e487b7160e01b600052601160045260246000fd5b808201808211156109f8576109f8612d5a565b6000815180845260005b81811015612da957602081850181015186830182015201612d8d565b506000602082860101526020601f19601f83011685010191505092915050565b6020815260006115d96020830184612d83565b80356001600160a01b0381168114612df357600080fd5b919050565b634e487b7160e01b600052604160045260246000fd5b604051606081016001600160401b0381118282101715612e3057612e30612df8565b60405290565b604051608081016001600160401b0381118282101715612e3057612e30612df8565b60405160e081016001600160401b0381118282101715612e3057612e30612df8565b6040516102e081016001600160401b0381118282101715612e3057612e30612df8565b604051601f8201601f191681016001600160401b0381118282101715612ec557612ec5612df8565b604052919050565b600082601f830112612ede57600080fd5b81356001600160401b03811115612ef757612ef7612df8565b612f0a601f8201601f1916602001612e9d565b818152846020838601011115612f1f57600080fd5b816020850160208301376000918101602001919091529392505050565b8015158114612d5757600080fd5b8035612df381612f3c565b60006001600160401b03821115612f6e57612f6e612df8565b5060051b60200190565b600082601f830112612f8957600080fd5b81356020612f9e612f9983612f55565b612e9d565b82815260059290921b84018101918181019086841115612fbd57600080fd5b8286015b84811015612fd85780358352918301918301612fc1565b509695505050505050565b600060a08284031215612ff557600080fd5b60405160a081016001600160401b03828210818311171561301857613018612df8565b81604052829350843583526020850135915061303382612f3c565b8160208401526040850135915061304982612f3c565b816040840152606085013591508082111561306357600080fd5b61306f86838701612ecd565b6060840152608085013591508082111561308857600080fd5b5061309585828601612f78565b6080830152505092915050565b6000604082840312156130b457600080fd5b604051604081016001600160401b0382821081831117156130d7576130d7612df8565b8160405282935084359150808211156130ef57600080fd5b6130fb86838701612ecd565b8352602085013591508082111561311157600080fd5b5061311e85828601612ecd565b6020830152505092915050565b600082601f83011261313c57600080fd5b8135602061314c612f9983612f55565b82815260059290921b8401810191818101908684111561316b57600080fd5b8286015b84811015612fd85780356001600160401b0381111561318e5760008081fd5b61319c8986838b01016130a2565b84525091830191830161316f565b600082601f8301126131bb57600080fd5b813560206131cb612f9983612f55565b82815260059290921b840181019181810190868411156131ea57600080fd5b8286015b84811015612fd85780356001600160401b038082111561320e5760008081fd5b908801906060828b03601f19018113156132285760008081fd5b613230612e0e565b8784013581526040808501358481111561324a5760008081fd5b6132588e8b83890101612ecd565b838b0152509184013591838311156132705760008081fd5b61327e8d8a85880101612ecd565b9082015286525050509183019183016131ee565b6000608082840312156132a457600080fd5b6132ac612e36565b9050813581526020820135602082015260408201356001600160401b03808211156132d657600080fd5b6132e285838601612ecd565b604084015260608401359150808211156132fb57600080fd5b5061330884828501612f78565b60608301525092915050565b600082601f83011261332557600080fd5b81356020613335612f9983612f55565b82815260059290921b8401810191818101908684111561335457600080fd5b8286015b84811015612fd85780356001600160401b038111156133775760008081fd5b6133858986838b0101613292565b845250918301918301613358565b600080604083850312156133a657600080fd5b6133af83612ddc565b915060208301356001600160401b03808211156133cb57600080fd5b9084019060e082870312156133df57600080fd5b6133e7612e58565b8235828111156133f657600080fd5b61340288828601612ecd565b82525060208301358281111561341757600080fd5b61342388828601612ecd565b60208301525060408301358281111561343b57600080fd5b61344788828601612fe3565b60408301525060608301358281111561345f57600080fd5b61346b88828601612ecd565b60608301525060808301358281111561348357600080fd5b61348f8882860161312b565b60808301525060a0830135828111156134a757600080fd5b6134b3888286016131aa565b60a08301525060c0830135828111156134cb57600080fd5b6134d788828601613314565b60c0830152508093505050509250929050565b600080604083850312156134fd57600080fd5b61350683612ddc565b946020939093013593505050565b6000806040838503121561352757600080fd5b61353083612ddc565b915060208301356001600160401b0381111561354b57600080fd5b613557858286016130a2565b9150509250929050565b60008060006060848603121561357657600080fd5b61357f84612ddc565b925061358d60208501612ddc565b9150604084013590509250925092565b600080604083850312156135b057600080fd5b6135b983612ddc565b915060208301356001600160401b038111156135d457600080fd5b61355785828601613292565b6000602082840312156135f257600080fd5b5035919050565b600081518084526020808501808196508360051b8101915082860160005b8581101561364157828403895261362f848351612d83565b98850198935090840190600101613617565b5091979650505050505050565b600081518084526020808501945080840160005b8381101561367e57815187529582019590820190600101613662565b509495945050505050565b6020815261369c60208201835115159052565b6020820151604082015260408201516060820152600060608301516102e08060808501526136ce610300850183612d83565b91506080850151601f19808685030160a08701526136ec8483612d83565b935060a08701519150808685030160c087015261370984836135f9565b935060c0870151915061372760e08701836001600160a01b03169052565b60e08701519150610100613745818801846001600160a01b03169052565b87015161012087810191909152870151610140808801919091528701516101608088019190915287015186850382016101808089019190915290925061378b8584612d83565b908801516101a08881019190915288015190945091506101c06137b8818801846001600160a01b03169052565b808801519250506101e08187860301818801526137d5858461364e565b9450808801519250506102006137ee8188018415159052565b87015191506102206138038782018415159052565b87015191506102406138188782018415159052565b870151915061026061382d8782018415159052565b870151610280878101919091528701516102a08088019190915287015186850382016102c080890191909152909250613866858461364e565b9450808801519250505061387d8286018215159052565b5090949350505050565b60006020828403121561389957600080fd5b6115d982612ddc565b600080604083850312156138b557600080fd5b823591506138c560208401612ddc565b90509250929050565b6000806000606084860312156138e357600080fd5b6138ec84612ddc565b925060208401356001600160401b038082111561390857600080fd5b908501906080828803121561391c57600080fd5b613924612e36565b82358152602083013560ff8116811461393c57600080fd5b602082015260408301358281111561395357600080fd5b61395f89828601612ecd565b60408301525060608301356060820152809450505050604084013590509250925092565b86815285602082015260c0604082015260006139a260c0830187612d83565b82810360608401526139b48187612d83565b905084608084015282810360a08401526139ce8185612d83565b9998505050505050505050565b600082601f8301126139ec57600080fd5b813560206139fc612f9983612f55565b82815260059290921b84018101918181019086841115613a1b57600080fd5b8286015b84811015612fd85780356001600160401b03811115613a3e5760008081fd5b613a4c8986838b0101612ecd565b845250918301918301613a1f565b60008060408385031215613a6d57600080fd5b613a7683612ddc565b915060208301356001600160401b0380821115613a9257600080fd5b908401906102e08287031215613aa757600080fd5b613aaf612e7a565b613ab883612f4a565b81526020830135602082015260408301356040820152606083013582811115613ae057600080fd5b613aec88828601612ecd565b606083015250608083013582811115613b0457600080fd5b613b1088828601612ecd565b60808301525060a083013582811115613b2857600080fd5b613b34888286016139db565b60a083015250613b4660c08401612ddc565b60c0820152613b5760e08401612ddc565b60e08201526101008381013590820152610120808401359082015261014080840135908201526101608084013583811115613b9157600080fd5b613b9d89828701612ecd565b8284015250506101808084013581830152506101a0613bbd818501612ddc565b908201526101c08381013583811115613bd557600080fd5b613be189828701612f78565b8284015250506101e0613bf5818501612f4a565b90820152610200613c07848201612f4a565b90820152610220613c19848201612f4a565b90820152610240613c2b848201612f4a565b90820152610260838101359082015261028080840135908201526102a08084013583811115613c5957600080fd5b613c6589828701612f78565b8284015250506102c09150613c7b828401612f4a565b828201528093505050509250929050565b60008060408385031215613c9f57600080fd5b613ca883612ddc565b915060208301356001600160401b03811115613cc357600080fd5b61355785828601612fe3565b60008060408385031215613ce257600080fd5b613ceb83612ddc565b91506138c560208401612ddc565b600181811c90821680613d0d57607f821691505b602082108103613d2d57634e487b7160e01b600052602260045260246000fd5b50919050565b600060018201613d4557613d45612d5a565b5060010190565b601f8211156109de57600081815260208120601f850160051c81016020861015613d735750805b601f850160051c820191505b81811015613d9257828155600101613d7f565b505050505050565b81516001600160401b03811115613db357613db3612df8565b613dc781613dc18454613cf9565b84613d4c565b602080601f831160018114613dfc5760008415613de45750858301515b600019600386901b1c1916600185901b178555613d92565b600085815260208120601f198616915b82811015613e2b57888601518255948401946001909101908401613e0c565b5085821015613e495787850151600019600388901b60f8161c191681555b5050505050600190811b01905550565b634e487b7160e01b600052603260045260246000fd5b6001600160a01b0383168152604060208083018290528351828401528301516060830152820151608080830152600090613eac60c0840182612d83565b90506060840151603f198483030160a0850152613ec9828261364e565b9695505050505050565b60018060a01b03831681526040602082015260008251604080840152613efc6080840182612d83565b90506020840151603f19848303016060850152613ec98282612d83565b600060208284031215613f2b57600080fd5b81516115d981612f3c565b80820281158282048414176109f8576109f8612d5a565b6020808252602d908201527f7761697420666f72207468652061737369676e656520746f20636f6e6669726d60408201526c20636f6d706c6574656e65737360981b606082015260800190565b600060208284031215613fac57600080fd5b5051919050565b60208082526035908201527f416d6f756e7420617070726f766564206973206c657373207468656e20746f6b604082015274195b881d1c985b9cd9995c9c995908185b5bdd5b9d605a1b606082015260800190565b818103818111156109f8576109f8612d5a56fea26469706673582212205bfb12da9a5f632581d4db806aaee1a176e37f5d9383ff479c987fb911392e1c64736f6c63430008130033",
  "linkReferences": {},
  "deployedLinkReferences": {}
}